{
  "contractName": "CrowdFunder",
  "abi": [
    {
      "constant": true,
      "inputs": [],
      "name": "creator",
      "outputs": [
        {
          "name": "",
          "type": "address"
        }
      ],
      "payable": false,
      "stateMutability": "view",
      "type": "function"
    },
    {
      "constant": true,
      "inputs": [],
      "name": "minimumToRaise",
      "outputs": [
        {
          "name": "",
          "type": "uint256"
        }
      ],
      "payable": false,
      "stateMutability": "view",
      "type": "function"
    },
    {
      "constant": true,
      "inputs": [],
      "name": "raiseBy",
      "outputs": [
        {
          "name": "",
          "type": "uint256"
        }
      ],
      "payable": false,
      "stateMutability": "view",
      "type": "function"
    },
    {
      "constant": true,
      "inputs": [],
      "name": "completeAt",
      "outputs": [
        {
          "name": "",
          "type": "uint256"
        }
      ],
      "payable": false,
      "stateMutability": "view",
      "type": "function"
    },
    {
      "constant": true,
      "inputs": [],
      "name": "state",
      "outputs": [
        {
          "name": "",
          "type": "uint8"
        }
      ],
      "payable": false,
      "stateMutability": "view",
      "type": "function"
    },
    {
      "constant": true,
      "inputs": [],
      "name": "totalRaised",
      "outputs": [
        {
          "name": "",
          "type": "uint256"
        }
      ],
      "payable": false,
      "stateMutability": "view",
      "type": "function"
    },
    {
      "constant": true,
      "inputs": [],
      "name": "currentBalance",
      "outputs": [
        {
          "name": "",
          "type": "uint256"
        }
      ],
      "payable": false,
      "stateMutability": "view",
      "type": "function"
    },
    {
      "constant": true,
      "inputs": [],
      "name": "fundRecipient",
      "outputs": [
        {
          "name": "",
          "type": "address"
        }
      ],
      "payable": false,
      "stateMutability": "view",
      "type": "function"
    },
    {
      "inputs": [
        {
          "name": "timeInHoursForFundraising",
          "type": "uint256"
        },
        {
          "name": "_campaignUrl",
          "type": "string"
        },
        {
          "name": "_fundRecipient",
          "type": "address"
        },
        {
          "name": "_minimumToRaise",
          "type": "uint256"
        }
      ],
      "payable": false,
      "stateMutability": "nonpayable",
      "type": "constructor"
    },
    {
      "payable": false,
      "stateMutability": "nonpayable",
      "type": "fallback"
    },
    {
      "anonymous": false,
      "inputs": [
        {
          "indexed": false,
          "name": "addr",
          "type": "address"
        },
        {
          "indexed": false,
          "name": "amount",
          "type": "uint256"
        },
        {
          "indexed": false,
          "name": "currentTotal",
          "type": "uint256"
        }
      ],
      "name": "LogFundingReceived",
      "type": "event"
    },
    {
      "anonymous": false,
      "inputs": [
        {
          "indexed": false,
          "name": "winnerAddress",
          "type": "address"
        }
      ],
      "name": "LogWinnerPaid",
      "type": "event"
    },
    {
      "anonymous": false,
      "inputs": [
        {
          "indexed": false,
          "name": "totalRaised",
          "type": "uint256"
        }
      ],
      "name": "LogFundingSuccessful",
      "type": "event"
    },
    {
      "anonymous": false,
      "inputs": [
        {
          "indexed": false,
          "name": "creator",
          "type": "address"
        },
        {
          "indexed": false,
          "name": "fundRecipient",
          "type": "address"
        },
        {
          "indexed": false,
          "name": "url",
          "type": "string"
        },
        {
          "indexed": false,
          "name": "_minimumToRaise",
          "type": "uint256"
        },
        {
          "indexed": false,
          "name": "raiseby",
          "type": "uint256"
        }
      ],
      "name": "LogFunderInitialized",
      "type": "event"
    },
    {
      "constant": false,
      "inputs": [],
      "name": "contribute",
      "outputs": [
        {
          "name": "",
          "type": "uint256"
        }
      ],
      "payable": true,
      "stateMutability": "payable",
      "type": "function"
    },
    {
      "constant": false,
      "inputs": [],
      "name": "checkIfFundingCompleteOrExpired",
      "outputs": [],
      "payable": false,
      "stateMutability": "nonpayable",
      "type": "function"
    },
    {
      "constant": false,
      "inputs": [],
      "name": "payOut",
      "outputs": [],
      "payable": false,
      "stateMutability": "nonpayable",
      "type": "function"
    },
    {
      "constant": false,
      "inputs": [
        {
          "name": "id",
          "type": "uint256"
        }
      ],
      "name": "getRefund",
      "outputs": [
        {
          "name": "",
          "type": "bool"
        }
      ],
      "payable": false,
      "stateMutability": "nonpayable",
      "type": "function"
    },
    {
      "constant": false,
      "inputs": [],
      "name": "removeContract",
      "outputs": [],
      "payable": false,
      "stateMutability": "nonpayable",
      "type": "function"
    }
  ],
  "bytecode": "0x60806040526000600460006101000a81548160ff0219169083600381111561002357fe5b021790555034801561003457600080fd5b50604051610d6a380380610d6a83398101806040528101908080519060200190929190805182019291906020018051906020019092919080519060200190929190505050336000806101000a81548173ffffffffffffffffffffffffffffffffffffffff021916908373ffffffffffffffffffffffffffffffffffffffff16021790555081600160006101000a81548173ffffffffffffffffffffffffffffffffffffffff021916908373ffffffffffffffffffffffffffffffffffffffff160217905550826003908051906020019061010f9291906102b8565b50670de0b6b3a76400008102600281905550610e108402420160078190555060006006819055507f8162f6314365078618b76691719ca4f4c7ab1b30cd94a9f1e2bd2fffb3958e676000809054906101000a900473ffffffffffffffffffffffffffffffffffffffff16600160009054906101000a900473ffffffffffffffffffffffffffffffffffffffff166003600254600754604051808673ffffffffffffffffffffffffffffffffffffffff1673ffffffffffffffffffffffffffffffffffffffff1681526020018573ffffffffffffffffffffffffffffffffffffffff1673ffffffffffffffffffffffffffffffffffffffff1681526020018060200184815260200183815260200182810382528581815460018160011615610100020316600290048152602001915080546001816001161561010002031660029004801561029d5780601f106102725761010080835404028352916020019161029d565b820191906000526020600020905b81548152906001019060200180831161028057829003601f168201915b5050965050505050505060405180910390a15050505061035d565b828054600181600116156101000203166002900490600052602060002090601f016020900481019282601f106102f957805160ff1916838001178555610327565b82800160010185558215610327579182015b8281111561032657825182559160200191906001019061030b565b5b5090506103349190610338565b5090565b61035a91905b8082111561035657600081600090555060010161033e565b5090565b90565b6109fe8061036c6000396000f3006080604052600436106100c5576000357c0100000000000000000000000000000000000000000000000000000000900463ffffffff16806302d05d3f146100d7578063105ea5401461012e57806337f944cc146101595780634c4cea5a1461018457806386f32586146101af578063c19d93fb146101c6578063c2052403146101ff578063c5c4744c14610216578063ce845d1d14610241578063d2f0be991461026c578063d7bb99ba146102b1578063d939c960146102cf578063fe389e0914610326575b3480156100d157600080fd5b50600080fd5b3480156100e357600080fd5b506100ec61033d565b604051808273ffffffffffffffffffffffffffffffffffffffff1673ffffffffffffffffffffffffffffffffffffffff16815260200191505060405180910390f35b34801561013a57600080fd5b50610143610362565b6040518082815260200191505060405180910390f35b34801561016557600080fd5b5061016e610368565b6040518082815260200191505060405180910390f35b34801561019057600080fd5b5061019961036e565b6040518082815260200191505060405180910390f35b3480156101bb57600080fd5b506101c4610374565b005b3480156101d257600080fd5b506101db610423565b604051808260038111156101eb57fe5b60ff16815260200191505060405180910390f35b34801561020b57600080fd5b50610214610436565b005b34801561022257600080fd5b5061022b610598565b6040518082815260200191505060405180910390f35b34801561024d57600080fd5b5061025661059e565b6040518082815260200191505060405180910390f35b34801561027857600080fd5b50610297600480360381019080803590602001909291905050506105a4565b604051808215151515815260200191505060405180910390f35b6102b961073c565b6040518082815260200191505060405180910390f35b3480156102db57600080fd5b506102e46108c3565b604051808273ffffffffffffffffffffffffffffffffffffffff1673ffffffffffffffffffffffffffffffffffffffff16815260200191505060405180910390f35b34801561033257600080fd5b5061033b6108e9565b005b6000809054906101000a900473ffffffffffffffffffffffffffffffffffffffff1681565b60025481565b60075481565b60085481565b60025460055411156103ea576002600460006101000a81548160ff0219169083600381111561039f57fe5b02179055507fee94ee98208684c00eeba940c34a6060b93671b249abd182b4771b74bf94e2dd6005546040518082815260200191505060405180910390a16103e5610436565b61041a565b600754421115610419576001600460006101000a81548160ff0219169083600381111561041357fe5b02179055505b5b42600881905550565b600460009054906101000a900460ff1681565b600280600381111561044457fe5b600460009054906101000a900460ff16600381111561045f57fe5b14151561046b57600080fd5b600160009054906101000a900473ffffffffffffffffffffffffffffffffffffffff1673ffffffffffffffffffffffffffffffffffffffff166108fc3073ffffffffffffffffffffffffffffffffffffffff16319081150290604051600060405180830381858888f1935050505015156104e457600080fd5b6003600460006101000a81548160ff0219169083600381111561050357fe5b021790555060006006819055507fcc2a9192e91e4dd58845fd890b297de7bfda33e9f07f14bb2e4fe2237c86723d600160009054906101000a900473ffffffffffffffffffffffffffffffffffffffff16604051808273ffffffffffffffffffffffffffffffffffffffff1673ffffffffffffffffffffffffffffffffffffffff16815260200191505060405180910390a150565b60055481565b60065481565b60008060018060038111156105b557fe5b600460009054906101000a900460ff1660038111156105d057fe5b1415156105dc57600080fd5b836009805490501115806105f05750600084105b8061061b5750600060098581548110151561060757fe5b906000526020600020906002020160000154145b1561062557600080fd5b60098481548110151561063457fe5b9060005260206000209060020201600001549150600060098581548110151561065957fe5b90600052602060002090600202016000018190555060098481548110151561067d57fe5b906000526020600020906002020160010160009054906101000a900473ffffffffffffffffffffffffffffffffffffffff1673ffffffffffffffffffffffffffffffffffffffff166108fc839081150290604051600060405180830381858888f19350505050151561071757816009858154811015156106f957fe5b90600052602060002090600202016000018190555060009250610735565b81600560008282540392505081905550600554600681905550600192505b5050919050565b60008080600381111561074b57fe5b600460009054906101000a900460ff16600381111561076657fe5b14151561077257600080fd5b600960408051908101604052803481526020013373ffffffffffffffffffffffffffffffffffffffff16815250908060018154018082558091505090600182039060005260206000209060020201600090919290919091506000820151816000015560208201518160010160006101000a81548173ffffffffffffffffffffffffffffffffffffffff021916908373ffffffffffffffffffffffffffffffffffffffff160217905550505050346005600082825401925050819055506005546006819055507f304e48bb03eae5e9bf3575d270648664895983e116a51773a65e9f3341b3b40e3334600554604051808473ffffffffffffffffffffffffffffffffffffffff1673ffffffffffffffffffffffffffffffffffffffff168152602001838152602001828152602001935050505060405180910390a16108b4610374565b60016009805490500391505090565b600160009054906101000a900473ffffffffffffffffffffffffffffffffffffffff1681565b6000809054906101000a900473ffffffffffffffffffffffffffffffffffffffff1673ffffffffffffffffffffffffffffffffffffffff163373ffffffffffffffffffffffffffffffffffffffff1614151561094457600080fd5b6001600381111561095157fe5b600460009054906101000a900460ff16600381111561096c57fe5b148061099d57506002600381111561098057fe5b600460009054906101000a900460ff16600381111561099b57fe5b145b80156109ae575042610e1060085401105b15156109b957600080fd5b3373ffffffffffffffffffffffffffffffffffffffff16ff00a165627a7a7230582071927888e6b912b7a04af9ea6cbda0f9bf03a75d6f6c489af1e6ed2816592bb70029",
  "source": "pragma solidity ^0.4.10;\n\n/*\n * @title A Simple Example\n * @author Harpreet Maan\n * This is dev for Blocklime's Bootcamp only\n * Use for Education purpose only\n *\n * copyright 2018 Blocklime Technologies Sdn. Bhd.\n */\n\ncontract CrowdFunder {\n    // Variables set\n    address public creator;\n    address public fundRecipient; // creator may be different than recipient\n    uint public minimumToRaise; // required to tip, else everyone gets refund\n    string campaignUrl;\n    byte constant version = 0x01;\n\n    // Data structures\n    enum State {\n        Fundraising,\n        ExpiredRefund,\n        Successful,\n        Closed\n    }\n    struct Contribution {\n        uint amount;\n        address contributor;\n    }\n\n    // State variables\n    State public state = State.Fundraising; // initialize on create\n    uint public totalRaised;\n    uint public currentBalance;\n    uint public raiseBy;\n    uint public completeAt;\n    Contribution[] contributions;\n\n    event LogFundingReceived(address addr, uint amount, uint currentTotal);\n    event LogWinnerPaid(address winnerAddress);\n    event LogFundingSuccessful(uint totalRaised);\n    event LogFunderInitialized(\n        address creator,\n        address fundRecipient,\n        string url,\n        uint _minimumToRaise,\n        uint256 raiseby);\n\n    modifier inState(State _state) {\n        if (state != _state) revert();\n        _;\n    }\n\n    modifier isCreator() {\n        if (msg.sender != creator) revert();\n        _;\n    }\n\n    // Wait 1 hour after final contract state before allowing contract destruction\n    modifier atEndOfLifecycle() {\n        if(!((state == State.ExpiredRefund || state == State.Successful) && completeAt + 1 hours < now)) {\n            revert();\n        }\n        _;\n    }\n\n    constructor (\n        uint timeInHoursForFundraising,\n        string _campaignUrl,\n        address _fundRecipient,\n        uint _minimumToRaise\n    ) public {\n        creator = msg.sender;\n        fundRecipient = _fundRecipient;\n        campaignUrl = _campaignUrl;\n        minimumToRaise = _minimumToRaise * 1000000000000000000; //convert to wei\n        raiseBy = now + (timeInHoursForFundraising * 1 hours);\n        currentBalance = 0;\n        emit LogFunderInitialized(\n            creator,\n            fundRecipient,\n            campaignUrl,\n            minimumToRaise,\n            raiseBy);\n    }\n\n    function contribute() public inState(State.Fundraising) payable returns (uint256) {\n        contributions.push(\n            Contribution({\n                amount: msg.value,\n                contributor: msg.sender\n                }) // use array, so can iterate\n            );\n        totalRaised += msg.value;\n        currentBalance = totalRaised;\n        emit LogFundingReceived(msg.sender, msg.value, totalRaised);\n\n        checkIfFundingCompleteOrExpired();\n        return contributions.length - 1; // return id\n    }\n\n    function checkIfFundingCompleteOrExpired() public {\n        if (totalRaised > minimumToRaise) {\n            state = State.Successful;\n            emit LogFundingSuccessful(totalRaised);\n            payOut();\n\n            // could incentivize sender who initiated state change here\n        } else if ( now > raiseBy )  {\n            state = State.ExpiredRefund; // backers can now collect refunds by calling getRefund(id)\n        }\n        completeAt = now;\n    }\n\n    function payOut() public inState(State.Successful) {\n        if(!fundRecipient.send(this.balance)) {\n            revert();\n        }\n        state = State.Closed;\n        currentBalance = 0;\n        emit LogWinnerPaid(fundRecipient);\n    }\n\n    function getRefund(uint256 id) public inState(State.ExpiredRefund)\n    returns (bool)\n    {\n        if (contributions.length <= id || id < 0 || contributions[id].amount == 0 ) {\n            revert();\n        }\n\n        uint amountToRefund = contributions[id].amount;\n        contributions[id].amount = 0;\n\n        if(!contributions[id].contributor.send(amountToRefund)) {\n            contributions[id].amount = amountToRefund;\n            return false;\n        }\n        else{\n            totalRaised -= amountToRefund;\n            currentBalance = totalRaised;\n        }\n\n        return true;\n    }\n\n    function removeContract() public isCreator() atEndOfLifecycle()\n    {\n        selfdestruct(msg.sender);\n        // creator gets all money that hasn't be claimed\n    }\n\n    function () public { revert(); }\n}\n",
  "sourcePath": "/Users/liren/code/blockchain/blocklime-bootcamp2018/18-crowd-funder-contract/contracts/CrowdFunder.sol",
  "compiler": {
    "name": "solc",
    "version": "0.4.24+commit.e67f0147.Emscripten.clang"
  },
  "schemaVersion": "2.0.1",
  "updatedAt": "2018-07-10T08:51:29.006Z"
}